{
  "contractName": "AceCoin",
  "abi": [
    {
      "anonymous": false,
      "inputs": [
        {
          "indexed": false,
          "internalType": "uint256",
          "name": "id",
          "type": "uint256"
        },
        {
          "indexed": false,
          "internalType": "address",
          "name": "owner",
          "type": "address"
        },
        {
          "indexed": false,
          "internalType": "string",
          "name": "ipfsHash",
          "type": "string"
        }
      ],
      "name": "DocumentCreated",
      "type": "event"
    },
    {
      "anonymous": false,
      "inputs": [
        {
          "indexed": false,
          "internalType": "uint256",
          "name": "id",
          "type": "uint256"
        },
        {
          "indexed": false,
          "internalType": "address",
          "name": "signer",
          "type": "address"
        }
      ],
      "name": "DocumentSigned",
      "type": "event"
    },
    {
      "inputs": [],
      "name": "documentCount",
      "outputs": [
        {
          "internalType": "uint256",
          "name": "",
          "type": "uint256"
        }
      ],
      "stateMutability": "view",
      "type": "function"
    },
    {
      "inputs": [
        {
          "internalType": "uint256",
          "name": "",
          "type": "uint256"
        }
      ],
      "name": "documents",
      "outputs": [
        {
          "internalType": "uint256",
          "name": "id",
          "type": "uint256"
        },
        {
          "internalType": "address",
          "name": "owner",
          "type": "address"
        },
        {
          "internalType": "string",
          "name": "ipfsHash",
          "type": "string"
        }
      ],
      "stateMutability": "view",
      "type": "function"
    },
    {
      "inputs": [
        {
          "internalType": "string",
          "name": "_ipfsHash",
          "type": "string"
        }
      ],
      "name": "createDocument",
      "outputs": [],
      "stateMutability": "nonpayable",
      "type": "function"
    },
    {
      "inputs": [
        {
          "internalType": "uint256",
          "name": "_id",
          "type": "uint256"
        }
      ],
      "name": "signDocument",
      "outputs": [],
      "stateMutability": "nonpayable",
      "type": "function"
    },
    {
      "inputs": [
        {
          "internalType": "uint256",
          "name": "_id",
          "type": "uint256"
        },
        {
          "internalType": "address",
          "name": "_signer",
          "type": "address"
        }
      ],
      "name": "hasSigned",
      "outputs": [
        {
          "internalType": "bool",
          "name": "",
          "type": "bool"
        }
      ],
      "stateMutability": "view",
      "type": "function"
    }
  ],
  "bytecode": "0x608060405234801561001057600080fd5b506109ea806100206000396000f3fe608060405234801561001057600080fd5b50600436106100575760003560e01c806302e85efe1461005c57806363a50d5014610078578063709df8d914610094578063a5b16b2e146100c4578063c2ed2b05146100e2575b600080fd5b6100766004803603810190610071919061055d565b610114565b005b610092600480360381019061008d919061059e565b6101ec565b005b6100ae60048036038101906100a991906105c7565b6102e1565b6040516100bb91906106a9565b60405180910390f35b6100cc610350565b6040516100d991906106e4565b60405180910390f35b6100fc60048036038101906100f7919061059e565b610356565b60405161010b93929190610728565b60405180910390f35b600160008154809291906101279061089f565b91905055506000806000600154815260200190815260200160002090506001548160000181905550338160010160006101000a81548173ffffffffffffffffffffffffffffffffffffffff021916908373ffffffffffffffffffffffffffffffffffffffff160217905550818160020190805190602001906101aa929190610428565b507f3d98d9ada8a743f0029d93e7cb583caff0deefd2c093c800064d6146cd56250660015433846040516101e093929190610728565b60405180910390a15050565b6000806000838152602001908152602001600020905060008160000154141561024a576040517f08c379a0000000000000000000000000000000000000000000000000000000008152600401610241906106c4565b60405180910390fd5b60018160030160003373ffffffffffffffffffffffffffffffffffffffff1673ffffffffffffffffffffffffffffffffffffffff16815260200190815260200160002060006101000a81548160ff0219169083151502179055507f4f45c30875f552d4b5d0a40abede6e40cb9e3b5df6c24df5026d21f5417a7c7082336040516102d59291906106ff565b60405180910390a15050565b60008060008085815260200190815260200160002090508060030160008473ffffffffffffffffffffffffffffffffffffffff1673ffffffffffffffffffffffffffffffffffffffff16815260200190815260200160002060009054906101000a900460ff1691505092915050565b60015481565b60006020528060005260406000206000915090508060000154908060010160009054906101000a900473ffffffffffffffffffffffffffffffffffffffff16908060020180546103a59061086d565b80601f01602080910402602001604051908101604052809291908181526020018280546103d19061086d565b801561041e5780601f106103f35761010080835404028352916020019161041e565b820191906000526020600020905b81548152906001019060200180831161040157829003601f168201915b5050505050905083565b8280546104349061086d565b90600052602060002090601f016020900481019282610456576000855561049d565b82601f1061046f57805160ff191683800117855561049d565b8280016001018555821561049d579182015b8281111561049c578251825591602001919060010190610481565b5b5090506104aa91906104ae565b5090565b5b808211156104c75760008160009055506001016104af565b5090565b60006104de6104d984610797565b610766565b9050828152602081018484840111156104f657600080fd5b61050184828561082b565b509392505050565b60008135905061051881610986565b92915050565b600082601f83011261052f57600080fd5b813561053f8482602086016104cb565b91505092915050565b6000813590506105578161099d565b92915050565b60006020828403121561056f57600080fd5b600082013567ffffffffffffffff81111561058957600080fd5b6105958482850161051e565b91505092915050565b6000602082840312156105b057600080fd5b60006105be84828501610548565b91505092915050565b600080604083850312156105da57600080fd5b60006105e885828601610548565b92505060206105f985828601610509565b9150509250929050565b61060c816107e3565b82525050565b61061b816107f5565b82525050565b600061062c826107c7565b61063681856107d2565b935061064681856020860161083a565b61064f81610975565b840191505092915050565b60006106676017836107d2565b91507f446f63756d656e7420646f6573206e6f742065786973740000000000000000006000830152602082019050919050565b6106a381610821565b82525050565b60006020820190506106be6000830184610612565b92915050565b600060208201905081810360008301526106dd8161065a565b9050919050565b60006020820190506106f9600083018461069a565b92915050565b6000604082019050610714600083018561069a565b6107216020830184610603565b9392505050565b600060608201905061073d600083018661069a565b61074a6020830185610603565b818103604083015261075c8184610621565b9050949350505050565b6000604051905081810181811067ffffffffffffffff8211171561078d5761078c610946565b5b8060405250919050565b600067ffffffffffffffff8211156107b2576107b1610946565b5b601f19601f8301169050602081019050919050565b600081519050919050565b600082825260208201905092915050565b60006107ee82610801565b9050919050565b60008115159050919050565b600073ffffffffffffffffffffffffffffffffffffffff82169050919050565b6000819050919050565b82818337600083830152505050565b60005b8381101561085857808201518184015260208101905061083d565b83811115610867576000848401525b50505050565b6000600282049050600182168061088557607f821691505b6020821081141561089957610898610917565b5b50919050565b60006108aa82610821565b91507fffffffffffffffffffffffffffffffffffffffffffffffffffffffffffffffff8214156108dd576108dc6108e8565b5b600182019050919050565b7f4e487b7100000000000000000000000000000000000000000000000000000000600052601160045260246000fd5b7f4e487b7100000000000000000000000000000000000000000000000000000000600052602260045260246000fd5b7f4e487b7100000000000000000000000000000000000000000000000000000000600052604160045260246000fd5b6000601f19601f8301169050919050565b61098f816107e3565b811461099a57600080fd5b50565b6109a681610821565b81146109b157600080fd5b5056fea2646970667358221220a4d50bdb41c5ede72bcad62f12631c109f8c8e85e1db4ed7f5a1f8332380561b64736f6c63430008000033",
  "immutableReferences": {},
  "source": "// SPDX-License-Identifier: MIT\npragma solidity ^0.8.0;\n\ncontract AceCoin {\n    struct Document {\n        uint256 id;\n        address owner;\n        string ipfsHash;\n        mapping(address => bool) signatures;\n    }\n\n    mapping(uint256 => Document) public documents;\n    uint256 public documentCount;\n\n    event DocumentCreated(uint256 id, address owner, string ipfsHash);\n    event DocumentSigned(uint256 id, address signer);\n\n    function createDocument(string memory _ipfsHash) public {\n        documentCount++;\n        Document storage doc = documents[documentCount];\n        doc.id = documentCount;\n        doc.owner = msg.sender;\n        doc.ipfsHash = _ipfsHash;\n        emit DocumentCreated(documentCount, msg.sender, _ipfsHash);\n    }\n\n    function signDocument(uint256 _id) public {\n        Document storage doc = documents[_id];\n        require(doc.id != 0, \"Document does not exist\");\n        doc.signatures[msg.sender] = true;\n        emit DocumentSigned(_id, msg.sender);\n    }\n\n    function hasSigned(uint256 _id, address _signer) public view returns (bool) {\n        Document storage doc = documents[_id];\n        return doc.signatures[_signer];\n    }\n}",
  "sourcePath": "D:\\acecoin-dapp\\acecoin-dapp\\smart-contracts\\contracts\\AceCoin.sol",
  "compiler": {
    "name": "solc",
    "version": "0.8.0+commit.c7dfd78e.Emscripten.clang"
  },
  "schemaVersion": "3.4.16",
  "updatedAt": "2024-09-19T07:21:12.047Z",
  "devdoc": {
    "kind": "dev",
    "methods": {},
    "version": 1
  },
  "userdoc": {
    "kind": "user",
    "methods": {},
    "version": 1
  }
}